:060000000A128A1100291A
:100200000F2123210313831206182A218618312176
:1002100006193E2186194521061A5621042903177D
:1002200083168801890103138316850187018801DC
:100230000614861406158615061603138312850107
:10024000870188010800031383160F178F120F12FE
:100250000F140800602106182B29850A051A85014C
:1002600008006021861832298503051A3821080004
:1002700085010514851405158515080060210619EA
:100280003F29870A071A8701080060218619462935
:100290008703071A4C2108008701071487140715E4
:1002A0008715080005080707880008006021061A5E
:1002B0005729522108009630A000A00B5D290800A4
:0C02C0000730A1005B21A10B622908009F
:04400E00D420FF3F7C
:00000001FF
